{
  "contractName": "Election",
  "abi": [
    {
      "constant": true,
      "inputs": [],
      "name": "candidatesCount",
      "outputs": [
        {
          "name": "",
          "type": "uint256"
        }
      ],
      "payable": false,
      "stateMutability": "view",
      "type": "function"
    },
    {
      "constant": true,
      "inputs": [
        {
          "name": "",
          "type": "uint256"
        }
      ],
      "name": "candidates",
      "outputs": [
        {
          "name": "id",
          "type": "uint256"
        },
        {
          "name": "name",
          "type": "string"
        },
        {
          "name": "votecount",
          "type": "uint256"
        }
      ],
      "payable": false,
      "stateMutability": "view",
      "type": "function"
    },
    {
      "constant": true,
      "inputs": [
        {
          "name": "",
          "type": "address"
        }
      ],
      "name": "voters",
      "outputs": [
        {
          "name": "",
          "type": "bool"
        }
      ],
      "payable": false,
      "stateMutability": "view",
      "type": "function"
    },
    {
      "inputs": [],
      "payable": false,
      "stateMutability": "nonpayable",
      "type": "constructor"
    },
    {
      "anonymous": false,
      "inputs": [
        {
          "indexed": true,
          "name": "_candidateId",
          "type": "uint256"
        }
      ],
      "name": "votedEvent",
      "type": "event"
    },
    {
      "constant": false,
      "inputs": [
        {
          "name": "_candidateId",
          "type": "uint256"
        }
      ],
      "name": "vote",
      "outputs": [],
      "payable": false,
      "stateMutability": "nonpayable",
      "type": "function"
    }
  ],
  "bytecode": "0x608060405234801561001057600080fd5b5061005e6040805190810160405280600d81526020017f4e6172656e646172204d6f6469000000000000000000000000000000000000008152506100fd640100000000026401000000009004565b6100ab6040805190810160405280600c81526020017f526168756c2047616e64686900000000000000000000000000000000000000008152506100fd640100000000026401000000009004565b6100f86040805190810160405280600681526020017f4f746865727300000000000000000000000000000000000000000000000000008152506100fd640100000000026401000000009004565b61021e565b600260008154809291906001019190505550606060405190810160405280600254815260200182815260200160008152506000806002548152602001908152602001600020600082015181600001556020820151816001019080519060200190610168929190610179565b506040820151816002015590505050565b828054600181600116156101000203166002900490600052602060002090601f016020900481019282601f106101ba57805160ff19168380011785556101e8565b828001600101855582156101e8579182015b828111156101e75782518255916020019190600101906101cc565b5b5090506101f591906101f9565b5090565b61021b91905b808211156102175760008160009055506001016101ff565b5090565b90565b6104048061022d6000396000f300608060405260043610610062576000357c0100000000000000000000000000000000000000000000000000000000900463ffffffff1680630121b93f146100675780632d35a8a2146100945780633477ee2e146100bf578063a3ec138d14610173575b600080fd5b34801561007357600080fd5b50610092600480360381019080803590602001909291905050506101ce565b005b3480156100a057600080fd5b506100a96102f0565b6040518082815260200191505060405180910390f35b3480156100cb57600080fd5b506100ea600480360381019080803590602001909291905050506102f6565b6040518084815260200180602001838152602001828103825284818151815260200191508051906020019080838360005b8381101561013657808201518184015260208101905061011b565b50505050905090810190601f1680156101635780820380516001836020036101000a031916815260200191505b5094505050505060405180910390f35b34801561017f57600080fd5b506101b4600480360381019080803573ffffffffffffffffffffffffffffffffffffffff1690602001909291905050506103b8565b604051808215151515815260200191505060405180910390f35b600160003373ffffffffffffffffffffffffffffffffffffffff1673ffffffffffffffffffffffffffffffffffffffff16815260200190815260200160002060009054906101000a900460ff1615151561022757600080fd5b60008111801561023957506002548111155b151561024457600080fd5b60018060003373ffffffffffffffffffffffffffffffffffffffff1673ffffffffffffffffffffffffffffffffffffffff16815260200190815260200160002060006101000a81548160ff02191690831515021790555060008082815260200190815260200160002060020160008154809291906001019190505550807ffff3c900d938d21d0990d786e819f29b8d05c1ef587b462b939609625b684b1660405160405180910390a250565b60025481565b6000602052806000526040600020600091509050806000015490806001018054600181600116156101000203166002900480601f0160208091040260200160405190810160405280929190818152602001828054600181600116156101000203166002900480156103a85780601f1061037d576101008083540402835291602001916103a8565b820191906000526020600020905b81548152906001019060200180831161038b57829003601f168201915b5050505050908060020154905083565b60016020528060005260406000206000915054906101000a900460ff16815600a165627a7a7230582020801b064665069a9cde32509f128508163df0dde60b9f7141591a8f576ab3ee0029",
  "source": "pragma solidity ^0.4.24;\r\n\r\ncontract Election {\r\n   \r\n   //structure of Candidate\r\n   //Solidity allows to create new structure type\r\n   struct Candidate {\r\n     //unsigned integer\r\n     uint id; \r\n     string name;\r\n     uint votecount;\r\n   }\r\n\r\n //fetch candidate\r\n mapping(uint => Candidate) public candidates;\r\n mapping(address => bool) public voters;\r\n \r\n  \r\n \r\n  uint public candidatesCount;\r\n\r\n  event votedEvent(\r\n    uint indexed _candidateId\r\n  );\r\n\r\n  //constructor ...Name should be same as Contract\r\n  function Election() public {\r\n  addCandidate(\"Narendar Modi\");\r\n  addCandidate(\"Rahul Gandhi\");\r\n  addCandidate(\"Others\"); \r\n  }\r\n\r\n  function  addCandidate(string _name) private {\r\n  candidatesCount ++;\r\n  candidates[candidatesCount] = Candidate(candidatesCount ,_name,0);\r\n  }\r\n\r\n  function vote(uint _candidateId) public {\r\n  require(!voters[msg.sender]);\r\n  require(_candidateId > 0 && _candidateId <= candidatesCount);\r\n  \r\n  voters[msg.sender] = true;\r\n\r\n  candidates[_candidateId].votecount++;\r\n  votedEvent(_candidateId);\r\n  }\r\n}\r\n",
  "sourcePath": "C:\\code\\election\\contracts\\Election.sol",
  "compiler": {
    "name": "solc",
    "version": "0.4.24+commit.e67f0147.Emscripten.clang"
  },
  "schemaVersion": "2.0.1",
  "updatedAt": "2018-08-08T13:44:25.169Z"
}